:060000000A128A11122809
:10000800FE00030E83120313E3000408E4000A0849
:10001800E5007F08E6000A128A1120280A128A11D0
:1000280015288313C7308400E0300A128A15072385
:1000380083010A128A15DC2B8C1E3D290A128A15A7
:1000480085230A128A11233A03192E293D2983127E
:10005800031390119016101610148E28643083160E
:100068000313DE000030DF008030D500E930592866
:10007800FA3083160313DE000030DF000030D500AD
:10008800F7305928F43083160313DE000130DF00FF
:100098008030D500FB305928E83083160313DE0082
:1000A8000330DF00C030D500FD30D600560883127B
:1000B80003138F018F078316031355088312031345
:1000C8008E018E07A32883300A128A154D230A123F
:1000D8008A11C83083160313DE000030DF00C030F9
:1000E800D500F430D6005608831203138F018F070A
:1000F800831603135508831203138E018E07831684
:100108000313DB01DB0A0030CC000030CD000030E7
:10011800CE00A3280A128A1585230A128A11313AB9
:1001280003193228033A03193C28013A03194628CF
:10013800073A03195028673A03196728A328831632
:1001480003130C14D101D2013D2901308316031386
:10015800DC000030DD0073300A128A154D230A12C4
:100168008A113D29053083160313DC000030DD00B9
:100178007B300A128A154D230A128A113D290A304A
:1001880083160313DC000030DD0058300A128A158C
:100198004D230A128A113D29143083160313DC00FB
:1001A8000030DD0061300A128A154D230A128A11C7
:1001B8003D293C3083160313DC000030DD006A3033
:1001C8000A128A154D230A128A113D2964308316B2
:1001D8000313DC000030DD0044300A128A154D2379
:1001E8000A128A113D29C83083160313DC00003037
:1001F800DD004E300A128A154D230A128A113D2954
:100208000A128A1585230A128A11313A0319A92874
:10021800033A0319B628013A0319C328073A031900
:10022800D028013A0319DD28033A0319EA28013ACC
:100238000319F7283D293D2983120313101083164B
:1002480003130C10DB010030CC000030CD0000306F
:10025800CE003D290A128A1585230A128A11433ACB
:1002680003190429133A03192029033A03192B28DF
:100278003D29831203130C1C882B061683160313BF
:100288005B0803196F2BAE01AF010030A9000030E5
:10029800AA000030AB004C0883120313A000831699
:1002A80003134D0883120313A100831603134E088A
:1002B80083120313A200831603135D08F901F907DB
:1002C8005C08F801F8070A128A1522230A128A1113
:1002D800780883120313A3007908A4007A08A500FC
:1002E8000A128A1183260A128A118312031320081C
:1002F80083160313A0008312031321088316031324
:10030800A10083120313220883160313A2001030DE
:1003180083120313A000C930A1004030A200831645
:100328000313200883120313A30083160313210861
:1003380083120313A40083160313220883120313E2
:10034800A5000A128A1183260A128A11831203133E
:10035800200883160313A3008312031321088316AE
:100368000313A40083120313220883160313A500A2
:10037800230883120313D30083160313240883125C
:100388000313D40083160313250883120313D5001F
:100398000A128A11EF230A128A11831203135308CF
:1003A80083160313A600831203135408831603133A
:1003B800A70083120313550883160313A8000030FF
:1003C80083120313B0002030B1004030B200003077
:1003D800A0002030A1004030A20083160313260895
:1003E80083120313A300831603132708831203132E
:1003F800A40083160313280883120313A5000A1206
:100408008A1183260A128A11831203132008B30063
:100418002108B4002208B5000A128A117A250A12A6
:100428008A1183120313300883160313A900831259
:100438000313310883160313AA0083120313320827
:1004480083160313AB004C0883120313B000831602
:1004580003134D0883120313B100831603134E08C8
:1004680083120313B200831603135F08F901F90717
:100478005E08F801F8070A128A1522230A128A115F
:10048800780883120313A0007908A1007A08A20053
:100498000030A3008030A4003F30A5000A128A155E
:1004A80048270A128A11831203132008B30021086F
:1004B800B4002208B5000A128A117A250A128A1194
:1004C80083120313300883160313CC00831203131B
:1004D800310883160313CD008312031332088316E1
:1004E8000313CE00290883120313A30083160313F2
:1004F8002A0883120313A400831603132B088312FC
:100508000313A5002830A000A030A1003B30A200B2
:100518000A128A1548270A128A118312031320081F
:10052800B0002108B1002208B2000A128A159B25E2
:100538000A128A1183120313310883160313AF01B9
:10054800AF0783120313300883160313AE01AE07F7
:100558002F0883120313E100610883160313AD000B
:100568002E0883120313E100610883160313AC00FD
:1005780030302E062F04031DD12A113083120313A5
:10058800E100610883160313AD00113083120313D1
:10059800E100610883160313AC0001302F06031D28
:1005A800D72A30302E06031DE92A2230831203137E
:1005B800E100610883160313AD0022308312031390
:1005C800E100610883160313AC0002302F06031DF7
:1005D800EF2A30302E06031D012B3330831203130C
:1005E800E100610883160313AD003330831203134F
:1005F800E100610883160313AC0003302F06031DC6
:10060800072B30302E06031D192B44308312031399
:10061800E100610883160313AD004430831203130D
:10062800E100610883160313AC00AD08031D1E2BFF
:1006380030302D2B5B300A128A15F7220A128A11E4
:10064800831603132D080A128A15F7220A128A1133
:100658005D300A128A15F7220A128A1183160313CB
:10066800AC08031D392B3030482B7B300A128A1511
:10067800F7220A128A11831603132C080A128A1504
:10068800F7220A128A117D300A128A15F7220A12F5
:100698008A11831603135F085206031D552B5E0843
:1006A8005106031D682B0030CC000030CD0000300F
:1006B800CE000030A9000030AA000030AB00AE0127
:1006C800AF01D101D201782B0130D1070318D20A2A
:1006D8000030D207782B0030F0000030F1000A1209
:1006E8008A1536230A128A118316031356088312B1
:1006F80003138F018F0783160313550883120313FF
:100708008E018E070C1006120C1FE42B83160313A0
:1007180052085104031D962B24300A128A15F72219
:100728000A128A11831203131E08031D9D2B3030F1
:10073800A02B831203131E080A128A15F7220A1225
:100748008A11831603131E08031DAC2B3030AF2B00
:10075800831603131E080A128A15F7220A128A1131
:10076800831603135E08FF3E83120313E10083160A
:1007780003135F080318013EFF3E83120313E200D0
:10078800831603135208831203136206031DD22B28
:10079800831603135108831203136106031DD92B13
:1007A80083160313D101D201E12B01308316031301
:1007B800D1070318D20A0030D207831203130C138F
:1007C8006608FF0065088A0064088400630E8300D9
:1007D800FE0E7E0E090083120313E0015308F00099
:1007E8005408F1005508F2000030F3000030F4001E
:1007F8000030F5000A128A155D240A128A110318BE
:100808001C2C831203135308F0005408F1005508F8
:10081800F2000A128A15FF220A128A11700883123E
:100828000313D3007108D4007208D500E001E00A70
:10083800FA3083120313A0002230A1003E30A20038
:100848005308A3005408A4005508A5000A128A11E9
:1008580083260A128A11831203132008D300210861
:10086800D4002208D5005308C4005408C500550810
:10087800C6000A128A1156270A128A118312031314
:100888004408CD004508CE004608CF005308D000E4
:100898005408D1005508D2000A128A1569230A1291
:1008A8008A11831203134D08D3004E08D4004F0851
:1008B800D5000030A0008030A1004030A2005308CD
:1008C800A3005408A4005508A5000A128A1183261B
:1008D8000A128A11831203132008D3002108D400B6
:1008E8002208D5000030F0000030F1004030F2005E
:1008F8005308F3005408F4005508F5000A128A1545
:100908005D240A128A110318AB2C003083120313DA
:10091800CD000030CE004030CF005308D00054083E
:10092800D1005508D2000A128A1569230A128A11C1
:10093800831203134D08D3004E08D4004F08D50086
:10094800E008003003190130D6005608E0000030F6
:10095800F0008030F1003F30F20083120313530897
:10096800F3005408F4005508F5000A128A155D24AE
:100978000A128A110318E82C003083120313B000FE
:100988000030B1004030B2005308F0005408F100C4
:100998005508F2000A128A15FF220A128A117008F5
:1009A80083120313B3007108B4007208B5000A1269
:1009B8008A117A250A128A11831203133008D30088
:1009C8003108D4003208D500831203135308A0005D
:1009D8005408A1005508A2005308A3005408A40015
:1009E8005508A5000A128A1183260A128A11831251
:1009F80003132008DD002108DE002208DF005D085F
:100A0800BD005E08BE005F08BF001030D600560863
:100A1800C0000330C1000030C2000A128A15222526
:100A28000A128A11831203133D08D7003E08D80022
:100A38003F08D9000430C1000030C2000130D600A0
:100A48005608C0005D08BD005E08BE005F08BF0014
:100A58000A128A1522250A128A11831203133D08E5
:100A6800A3003E08A4003F08A5005708A0005808A6
:100A7800A1005908A2000A128A1548270A128A11E9
:100A8800831203132008DA002108DB002208DC00A7
:100A98005A08A0005B08A1005C08A2005308A30044
:100AA8005408A4005508A5000A128A1183260A12C0
:100AB8008A11831203132008D3002108D4002208C6
:100AC800D5006008031908005308F0005408F10025
:100AD8005508F2000A128A15FF22700883120313C0
:100AE800D3007108D4007208D500080083120313DC
:100AF8003008B6003108B7003208B8000310370DC7
:100B0800380DB9003908BC003308B6003408B700FE
:100B18003508B8000310370D380DB9003908BB0087
:100B28003C080319A32D3B083C020318AA2D3C03DB
:100B3800FF3A3B07B60019303602031CAA2D3308CA
:100B4800B0003408B1003508B20008003B080319AA
:100B580008003C083B020318B92D3B03FF3A3C0749
:100B6800B60019303602031808000630B6003608F9
:100B7800BA00B21BBA17B51B3A17B117FF30B00548
:100B8800FF30B1050030B205B417FF30B305FF30B0
:100B9800B4050030B5053B083C020318F92D0130B7
:100BA8000310B30DB40DB50DFF3E031DD42D013058
:100BB800BB023B083C060319F42D0130BA023A087F
:100BC80007390319F42DD32D01300310B20CB10CE1
:100BD800B00CFF3E031DE92D0130B6003608BC07F6
:100BE8003C083B060319222EE82D3C083B0203185B
:100BF800222E01300310B00DB10DB20DFF3E031DC2
:100C0800FE2D0130BC023B083C0603191E2E0130A4
:100C1800BA023A08073903191E2EFD2D01300310B8
:100C2800B50CB40CB30CFF3E031D132E0130B600F7
:100C38003608BB073C083B06031D122EBA1F342E8C
:100C4800FF30B006FF30B106FF30B2060130B00702
:100C5800003003180130B107003003180130B20723
:100C68003A1F462EFF30B306FF30B406FF30B506F4
:100C78000130B307003003180130B40700300318FF
:100C88000130B507BA013008B3073108031103185A
:100C9800310A031DB407320803110318320A031D71
:100CA800B507B51F692EFF30B306FF30B406FF3015
:100CB800B5060130B307003003180130B40700301F
:100CC80003180130B507BA01BA0A3308F00034082E
:100CD800F1003508F2003C08B6003608F3003A087F
:100CE800B7003708F4000A128A15BA24700883126C
:100CF8000313B0007108B1007208B2000800831233
:100D080003132008A6002108A7002208A800031042
:100D1800270D280DA9002908AA00AA08031D9B2E43
:100D28000030A0000030A1000030A2000800230815
:100D3800A6002408A7002508A8000310270D280DE1
:100D4800A9002908AF00AF08031DB12E0030A0008C
:100D58000030A1000030A20008002F087B3EA6004A
:100D68002608AA072008A6002108A7002208A8002C
:100D780010300310A80CA70CA60CFF3E031DBD2EB7
:100D88002608A9002908AF002308A6002408A70000
:100D98002508A80010300310A80CA70CA60CFF3ECD
:100DA800031DCF2E2608A9002908AF068030A6000B
:100DB8002608AF05A117A417FF30A305FF30A40527
:100DC8000030A5050030AB000030AC000030AD00AD
:100DD8000730A6002608AE00201C002F2308AB070A
:100DE800240803110318240A031DAC07250803115E
:100DF8000318250A031DAD0701300310A20CA10C2E
:100E0800A00CFF3E031D012F01300310A30DA40DFC
:100E1800A50DFF3E031D092F0130AE02031DF02E64
:100E28000930A6002608AE00201C282F2308AB078F
:100E3800240803110318240A031DAC07250803110D
:100E48000318250A031DAD0701300310A20CA10CDD
:100E5800A00CFF3E031D292F01300310AD0CAC0C74
:100E6800AB0CFF3E031D312F0130AE02031D182FBE
:100E78002B08F0002C08F1002D08F2002A08A60023
:100E88002608F3002F08A7002708F4000A128A157D
:100E9800BA24700883120313A0007108A100720815
:100EA800A2000800831203134408F0004508F1006B
:100EB8004608F2004B30C7004708F3000A128A15AB
:100EC800A2230A128A1183120313CC1F902F4408FD
:100ED800F0004508F1004608F2000030F300003049
:100EE800F4000030F5000A128A155D240A128A11EE
:100EF8000318872F003083120313C4008030C50005
:100F0800BF30C6000800003083120313C40000304D
:100F1800C5000030C600080000304C021530031927
:100F28004B02031808004408B0004508B100460801
:100F3800B2000A128A159B250A128A11831203131A
:100F48003308C1003208C0003108BF003008BE00B5
:100F58000A128A151B240A128A11831203133E08E7
:100F6800C8003F08C9004008CA004408F000450806
:100F7800F1004608F2004808F3004908F4004A085E
:100F8800F5000A128A155D240A128A110318E62F41
:100F9800003083120313B0008030B100BF30B200BC
:100FA8004808B3004908B4004A08B5000A128A1173
:100FB8007A25831203133008C4003108C5003208AB
:100FC800C6000800831203134808C4004908C50076
:100FD8004A08C6000800F300F201731CF72F7008D6
:100FE800F1007108F2070310F00D0310F30CF30879
:100FF800031DF12F7208080008308A000408840ACB
:1010080082070034F4344A34483495349534C7346C
:10101800C134DC344534DC346D34C334B334333454
:1010280040343434013448349D34B03445340034C9
:10103800DA344234003480343F340A340D342034F6
:101048002D342D342D342D342D342D342D3420349D
:101058004534533454344F34553452344F34203497
:10106800443445342034503449344C3448344134C1
:1010780020342D342D342D342D342D342D342D346D
:1010880020340A340D3420340034313430343034D0
:101098002E343034203448347A340A34003432342C
:1010A800303430342E343034203448347A340A34EE
:1010B8000034313430342E343034203448347A34E7
:1010C8000A340034323430342E3430342034483446
:1010D8007A340A340034363430342E343034203400
:1010E80048347A340A34003431342E3430342034DD
:1010F80048347A340A34003435342E3430342034C9
:1011080048347A340A3400347434653473347434AB
:041118006534003406
:1015EE00F000831203130C1EF82A700899000800ED
:1015FE00720871047004031908008030F2060800A6
:10160E0064008001840A0406031900340406082BC2
:10161E00831603139F179F111F119F101F101F1763
:10162E00831203139F171F13831603130C178312B2
:10163E0003130C1308007808F0007908F100F2018A
:10164E008E30FB007B08F300F4010A128A15BA24CF
:10165E007008F8007108F9007208FA0008007008A6
:10166E00F200F20DF20DF20D831203131F08720633
:10167E00C73972069F001F142630F200F20B452B5D
:10168E00831203131F151F1D08004A2BF200720848
:10169E0084000A128A1500200A128A1500380319CE
:1016AE000800720884000A128A1500200A128A1590
:1016BE000A128A15F7220A128A150130F1007108F2
:1016CE00F2074E2B803083120313CF065008B00062
:1016DE005108B1005208B2004D08B3004E08B400D4
:1016EE004F08B5000A128A117A25831203133008A7
:1016FE00CD003108CE003208CF0008007230F30062
:10170E00F30B872B8A2B831203139818932B1A082B
:10171E00F3007308F4009F2B1C300A128A154D2318
:10172E008312031318121A08F3007308F400181624
:10173E008C1274080800720871047004031DAE2B1D
:10174E007308840083138001840A800108007208E4
:10175E007F39F400F5010310F40DF50D73088400C4
:10176E00740883138000840A75088000710D710D52
:10177E000139F400F5017308840074088004840AAA
:10178E00750880047308840082308007840F000877
:10179E000318000AFF00FF307F07800084037208E1
:1017AE0080393F38F200F1130800FF30831603131F
:1017BE008500FF3083120313850083160313860101
:1017CE008312031386018030831603138700803043
:1017DE0083120313870083160313880183120313E6
:1017EE008801FF30831603138900FF308312031321
:1017FE008900003083160313C2000130C100AD30E2
:10180E00C000B030BF000130C3000030C4000A1267
:10181E008A15B8260A128A150A128A150F230A1279
:10182E008A150B178B171A2C83120313C3018E30D4
:10183E00FC007C08C200C11F312CBE09BF09C009C3
:10184E00C109BE0A0319BF0A0319C00A0319C10A46
:10185E00C301C30AFF3041050319432C01300310A5
:10186E00C10CC00CBF0CBE0CFF3E031D362C01304C
:10187E00FC007C08C207312C3E08F0003F08F10046
:10188E004008F2004208FC007C08F3004308FD000B
:10189E007D08F4000A128A15BA2470088312031305
:1018AE00BE007108BF007208C0000800F21F842C31
:1018BE000030F6000030F7008030F8007009F900B3
:1018CE007109FA007209FB00F90A0319FA0A0319E1
:1018DE00FB0A7908F6077A0803187A0F772C782C0A
:1018EE00F7077B0803187B0F7D2C7E2CF8077608F4
:1018FE00F0007708F1007808F200F51FAB2C0030ED
:10190E00F6000030F7008030F8007309F900740912
:10191E00FA007509FB00F90A0319FA0A0319FB0A02
:10192E007908F6077A0803187A0F9E2C9F2CF70772
:10193E007B0803187B0FA42CA52CF8077608F30060
:10194E007708F4007808F5008030F2068030F5064E
:10195E0075087202031D080074087102031D080049
:10196E0073087002080073080319C22C7208710400
:10197E007004031DD52C0030F0000030F100003053
:10198E00F20008000130F5007508F307013003106E
:10199E00F20CF10CF00CFF3E031DCE2CFE30720546
:1019AE000319F02CC92C0130F5007508F30701302E
:1019BE00F007003003180130F10700300318013032
:1019CE00F20701300310F20CF10CF00CFF3E031D78
:1019DE00E92CFF3072050319FF2CDA2C0130F302CB
:1019EE0001300310F00DF10DF20DFF3E031DF82C2A
:1019FE00F11FF52C7318092DFF30F0057F30F1051E
:101A0E00FF30F2050310F30C7308F500F601F70131
:101A1E0010300310F50DF60DF70DFF3E031D102DC2
:101A2E007508F0047608F1047708F20474080319B7
:101A3E000800F21708000330FC007C08F000831247
:101A4E00031341080A128A11EF270A128A1583120C
:101A5E000313400784000A128A1500200A128A1501
:101A6E00C3000A128A1500200A128A15C4000A122F
:101A7E008A1500200A128A15C5004208410403196E
:101A8E00942D0330FC007C08F000FF30C1070318D2
:101A9E00C20AFF30C20741080A128A11EF270A1242
:101AAE008A1583120313400784000A128A15002038
:101ABE000A128A15B0000A128A1500200A128A1517
:101ACE00B1000A128A1500200A128A15B2004308C4
:101ADE00A0004408A1004508A2003D08A3003E084E
:101AEE00A4003F08A5000A128A1183260A128A153D
:101AFE00831203132008B3002108B4002208B50096
:101B0E000A128A117A250A128A15831203133008D3
:101B1E00C3003108C4003208432D4308BD004408F9
:101B2E00BE004508BF000800831203133008B4003E
:101B3E003108B5003208B6000310350D360DB7006A
:101B4E003708BD00BD08031DB52D0030B3000030B1
:101B5E00B2000030B1000030B00008003008B40010
:101B6E003108B5003208B60017300310B60CB50CAC
:101B7E00B40CFF3E031DBC2D3408B7003708B80067
:101B8E00B117FF30B005FF30B1050030B205300897
:101B9E00B9003108BA003208BB00BC018E30BD025C
:101BAE00BD1FF72D3D08803A8F3E0318E72D0030FC
:101BBE00B3000030B2000030B1000030B0000800B9
:101BCE0001300310BC0CBB0CBA0CB90CFF3E031D4C
:101BDE00E82D0130B4003408BD070319122EE72D8D
:101BEE0018303D02031C0F2E0030B3000030B2003F
:101BFE000030B1000030B00008000130B400031016
:101C0E00B90DBA0DBB0DBC0DB40B062E0130BD02C5
:101C1E00BD08031D042E38080319202EB909BA0970
:101C2E00BB09BC09B90A0319BA0A0319BB0A03197D
:101C3E00BC0A3C08B3003B08B2003A08B1003908B0
:101C4E00B000080083160313BA01B31F3B2EB00970
:101C5E00B109B209B309B00A0319B10A0319B20ADC
:101C6E000319B30ABA01BA0AB71F4C2EB409B50943
:101C7E00B609B709B40A0319B50A0319B60A031946
:101C8E00B70A0130B8003808BA060030BE0000307E
:101C9E00BD000030BC000030BB00330832043104FC
:101CAE0030040319A12EB901B90AB31B6C2E0130F1
:101CBE00B8000310B00DB10DB20DB30DB80B602E00
:101CCE000130B8003808B9075C2E0130B800031097
:101CDE00BB0DBC0DBD0DBE0DB80B6E2E33083702FD
:101CEE00031D832E32083602031D832E3108350262
:101CFE00031D832E30083402031C942E3008B402C8
:101D0E003108031C310FB5023208031C320FB60224
:101D1E003308031C330FB7023B1401300310B30C0E
:101D2E00B20CB10CB00CFF3E031D952E0130B90262
:101D3E00031D6C2E3A080319AF2EBB09BC09BD0951
:101D4E00BE09BB0A0319BC0A0319BD0A0319BE0A50
:101D5E003E08B3003D08B2003C08B1003B08B0009D
:101D6E00080083160313C501C60144084304031D6E
:101D7E00E02E3F08831603179000831603134008C6
:101D8E008316031791008316031341088316031756
:101D9E00920083160313420883160317930006302E
:101DAE000310900D910D920D930DFF3E031DD72E36
:101DBE00FF2E3F0883160317900083160313400867
:101DCE008316031791008316031341088316031716
:101DDE0092008316031342088316031793000430F0
:101DEE000310900D910D920D930DFF3E031DF72ED6
:101DFE00130883160313B3008316031712088316F2
:101E0E000313B20083160317110883160313B100D0
:101E1E0083160317100883160313B0000130B700A2
:101E2E001930B6004030B5000030B4000A128A15E1
:101E3E002926831603133008FF3EC5003108031808
:101E4E00013EFF3EC60045089900981718139816D4
:101E5E0018124308031D1815031918119814181099
:101E6E008312031398171813981218169811181135
:101E7E0098101810831603138C16831203138C12EA
:101E8E000800831203132308A6002408A7002508C0
:101E9E00A8000310270D280DA9002908AE00AE08D2
:101EAE00031D602F0030A0000030A1000030A20002
:101EBE0008002008A6002108A7002208A800031089
:101ECE00270D280DA9002908AF00AF08031D762F96
:101EDE000030A0000030A1000030A2000800003049
:101EEE00AB000030AC000030AD0089302F07A600EB
:101EFE002608AE022308A6002408A7002508A8007D
:101F0E0010300310A80CA70CA60CFF3E031D882F43
:101F1E002608A9002908AF002008A6002108A7005E
:101F2E002208A80010300310A80CA70CA60CFF3E28
:101F3E00031D9A2F2608A9002908AF068030A60097
:101F4E002608AF05A417FF30A305FF30A405003007
:101F5E00A505A117FF30A005FF30A1050030A20591
:101F6E001830A6002608AA0001300310AB0DAC0DE8
:101F7E00AD0DFF3E031DBC2F22082502031DCD2FE4
:101F8E0021082402031DCD2F20082302031CDA2F63
:101F9E002008A3022108031C210FA4022208031CFF
:101FAE00220AA5022B1401300310A30DA40DA50DBA
:101FBE00FF3E031DDB2F0130AA02031DBB2F2B0892
:101FCE00F0002C08F1002D08F2002E08A6002608BD
:101FDE00F3002F08A7002708F4000A128A15BA2466
:101FEE00700883120313A0007108A1007208A200EA
:021FFE000800D9
:02400E0032FF7F
:00000001FF
