:060000000A128A11122809
:10000800FE00030E83120313E9000408EA000A083D
:10001800EB007F08EC000A128A1122280A128A11C2
:100028001528ED01EE018313BF308400D6300A1283
:100038008A15922283010A128A157E2B8C1E352975
:100048000A128A1506230A128A11233A0319262945
:100058003529831203139011901610161014862850
:10006800643083160313D4000030D5000030C90073
:100078001F305B28FA3083160313D4000030D500F4
:100088000030C900F7305B28F43083160313D4001E
:100098000130D5008030C900FB305B28E83083167A
:1000A8000313D4000330D500C030C900FD30CA00A6
:1000B8004A08831203138F00831603134908831217
:1000C80003138E009B28C83083160313D400003016
:1000D800D500CB30C900F330CA004A088312031395
:1000E8008F00831603134908831203138E008316A7
:1000F8000313D101D10A0030C4000030C50000301C
:10010800C6009B280A128A1506230A128A11313A58
:1001180003193428033A03193E28013A03194828D9
:10012800073A03195228673A031967289B28831648
:1001380003130C14CF01D0013529013083160313A2
:10014800D2000030D30073300A128A15EA220A124C
:100158008A113529053083160313D2000030D300E5
:100168007B300A128A15EA220A128A1135290A30C6
:1001780083160313D2000030D30058300A128A15B0
:10018800EA220A128A113529143083160313D20081
:100198000030D30061300A128A15EA220A128A1145
:1001A80035293C3083160313D2000030D3006A305F
:1001B8000A128A15EA220A128A113529643083162E
:1001C8000313D2000030D30044300A128A15EA2201
:1001D8000A128A113529C83083160313D200003059
:1001E800D3004E300A128A15EA220A128A113529DA
:1001F8000A128A1506230A128A11313A0319A1280C
:10020800033A0319AE28013A0319BB28073A031920
:10021800C828013A0319D528033A0319E228013AF4
:100228000319EF2835293529831203131010831673
:1002380003130C10D1010030C4000030C500003099
:10024800C60035290A128A1506230A128A11433A6A
:100258000319FC28133A03191829033A03192D28FE
:100268003529831203130C1C742B061683160313EB
:10027800510803195E2BB801B9010030B3000030F2
:10028800B4000030B500440883120313A00083169D
:100298000313450883120313A100831603134608AA
:1002A80083120313A200831603135308F90052089C
:1002B800F8000A128A15BE220A128A1178088312D7
:1002C8000313A3007908A4007A08A5000A128A116A
:1002D800CB260A128A1183120313200883160313EC
:1002E800AA0083120313210883160313AB00831299
:1002F8000313220883160313AC0010308312031370
:10030800A000C930A1004030A200831603132A08B8
:1003180083120313A300831603132B0883120313FA
:10032800A400831603132C0883120313A5000A12D2
:100338008A11CB260A128A11831203132008831606
:100348000313AD0083120313210883160313AE00B1
:1003580083120313220883160313AF002D08831298
:100368000313E300831603132E0883120313E40018
:10037800831603132F0883120313E5000A128A1148
:10038800DB230A128A1183120313630883160313EB
:10039800B00083120313640883160313B100831299
:1003A8000313650883160313B20000308312031386
:1003B800C0002030C1004030C2000030A000203012
:1003C800A1004030A20083160313300883120313E0
:1003D800A30083160313310883120313A4008316A2
:1003E8000313320883120313A5000A128A11CB26BD
:1003F8000A128A11831203132008C3002108C400BB
:100408002208C5000A128A11C2250A128A1183120B
:100418000313400883160313B30083120313410820
:1004280083160313B40083120313420883160313BD
:10043800B500440883120313C0008316031345084C
:1004480083120313C1008316031346088312031390
:10045800C200831603135508F9005408F8000A125D
:100468008A15BE220A128A11780883120313B00073
:100478007908B1007A08B2000030B3008030B400C7
:100488003F30B5000A128A1548270A128A118312CA
:1004980003133008C3003108C4003208C5000A122B
:1004A8008A11C2250A128A1183120313400883167F
:1004B8000313C40083120313410883160313C500F2
:1004C80083120313420883160313C60033088312EA
:1004D8000313B30083160313340883120313B40001
:1004E80083160313350883120313B5002830B000B0
:1004F800A030B1003B30B2000A128A1548270A1210
:100508008A11831203133008C0003108C100320871
:10051800C2000A128A15E4240A128A1183120313EC
:10052800410883160313B900831203134008831686
:100538000313B800390883120313E700670883160A
:100548000313B700380883120313E70067088316FC
:100558000313B600303038063904031DC32A11309E
:1005680083120313E700670883160313B7001130DB
:1005780083120313E700670883160313B6003030AD
:100588003806031DDA2A3903031DDA2A22308312BA
:100598000313E700670883160313B700223083129A
:1005A8000313E700670883160313B60030303806D4
:1005B800023003193906031DF12A3330831203135D
:1005C800E700670883160313B70033308312031359
:1005D800E700670883160313B60030303806033087
:1005E80003193906031D082B443083120313E7004F
:1005F800670883160313B700443083120313E70018
:10060800670883160313B6003708031D0D2B303017
:100618001C2B5B300A128A1582220A128A11831651
:10062800031337080A128A1582220A128A115D30CA
:100638000A128A1582220A128A11831603133608AF
:10064800031D282B3030372B7B300A128A15822263
:100658000A128A118316031336080A128A1582228F
:100668000A128A117D300A128A1582220A128A1108
:100678008316031355085006031D442B54084F06D0
:10068800031D572B0030C4000030C5000030C600E1
:100698000030B3000030B4000030B500B801B90133
:1006A800CF01D001662B0130CF070318D00A0030E4
:1006B800D007662B0030F000F1000A128A15D2220A
:1006C8000A128A11831603134A08831203138F0030
:1006D800831603134908831203138E000C100612A5
:1006E8000C1FD02B831603134F085004031D822BB5
:1006F80024300A128A1582220A128A1183120313DD
:100708001E08031D892B30308C2B831203131E08FF
:100718000A128A1582220A128A11831603131E08E6
:10072800031D982B30309B2B831603131E080A12C7
:100738008A1582220A128A11831603135408FF3E6F
:1007480083120313E7008316031355080318013EA9
:10075800FF3E83120313E800831603135008831225
:1007680003136806031DBE2B831603134F08831259
:1007780003136706031DC52B83160313CF01D0018E
:10078800CD2B013083160313CF070318D00A00308E
:10079800D007831203130C136C08FF006B088A0040
:1007A8006A088400690E8300FE0E7E0E0900831617
:1007B8000313A901831203136308F0006408F1000E
:1007C8006508F2000030F3000030F4000030F50056
:1007D8000A128A119E270A128A1103180C2C8312F6
:1007E80003136308F0006408F1006508F2000A12B8
:1007F8008A158A220A128A11700883120313E300E9
:100808007108E4007208E50083160313A901A90A18
:10081800FA3083120313A0002230A1003E30A20058
:100828006308A3006408A4006508A5000A128A11D9
:10083800CB260A128A11831203132008E300210829
:10084800E4002208E5006308D4006408D5006508C0
:10085800D6000A128A1572250A128A118312031306
:100868005408DD005508DE005608DF006308E00084
:100878006408E1006508E2000A128A1523230A12B7
:100888008A11831203135D08E3005E08E4005F0821
:10089800E5000030A0008030A1004030A2006308CD
:1008A800A3006408A4006508A5000A128A11CB26D3
:1008B8000A128A11831203132008E3002108E400B6
:1008C8002208E5000030F0000030F1004030F2006E
:1008D8006308F3006408F4006508F5000A128A1139
:1008E8009E270A128A110318A32C003083120313BF
:1008F800DD000030DE004030DF006308E0006408FF
:10090800E1006508E2000A128A1523230A128A11F7
:10091800831203135D08E3005E08E4005F08E50046
:10092800831603132908031D9B2C01309C2C0030CF
:1009380083120313E600660883160313A900003028
:10094800F0008030F1003F30F20083120313630897
:10095800F3006408F4006508F5000A128A119E275E
:100968000A128A110318E02C003083120313C00006
:100978000030C1004030C2006308F0006408F10094
:100988006508F2000A128A158A220A128A1170086A
:1009980083120313C3007108C4007208C5000A1249
:1009A8008A11C2250A128A11831203134008E30030
:1009B8004108E4004208E500831203136308A0001D
:1009C8006408A1006508A2006308A3006408A400E5
:1009D8006508A5000A128A11CB260A128A11831209
:1009E8000313200883160313A60083120313210898
:1009F80083160313A7008312031322088316031315
:100A0800A800260883120313CD00831603132708B2
:100A180083120313CE0083160313280883120313CB
:100A2800CF001030E6006608D0000330D100003057
:100A3800D2000A128A156B240A128A118312031330
:100A48004D0883160313A000831203134E08831660
:100A58000313A100831203134F0883160313A20084
:100A6800043083120313D1000030D2000130E600B5
:100A78006608D00083160313260883120313CD00DB
:100A880083160313270883120313CE008316031358
:100A9800280883120313CF000A128A156B240A123E
:100AA8008A11831203134D08B3004E08B4004F088F
:100AB800B50083160313200883120313B0008316AE
:100AC8000313210883120313B100831603132208AA
:100AD80083120313B2000A128A1548270A128A11D0
:100AE80083120313300883160313A300831203131E
:100AF800310883160313A4008312031332088316E4
:100B08000313A500230883120313A00083160313FD
:100B1800240883120313A1008316031325088312E4
:100B28000313A2006308A3006408A4006508A500D5
:100B38000A128A11CB260A128A118312031320087B
:100B4800E3002108E4002208E500831603132908BE
:100B580003190800831203136308F0006408F10006
:100B68006508F2000A128A158A2270088312031394
:100B7800E3007108E4007208E5000800831203131B
:100B88004008C6004108C7004208C8000310470DC6
:100B9800480DC9004908CC004308C6004408C700EE
:100BA8004508C8000310470D480DC9004908CB0087
:100BB8004C080319EB2D4B084C020318F22D4C037B
:100BC800FF3A4B07C60019304602031CF22D4308B2
:100BD800C0004408C1004508C20008004B080319BA
:100BE80008004C084B020318012E4B03FF3A4C0730
:100BF800C60019304602031808000630C600460829
:100C0800CA00C21BCA17C51B4A17C117FF30C00547
:100C1800FF30C1050030C205C417FF30C305FF30DF
:100C2800C4050030C5054B084C020318412E01309D
:100C38000310C30DC40DC50DFF3E031D1C2E01304E
:100C4800CB024B084C0603193C2E0130CA024A0855
:100C5800073903193C2E1B2E01300310C20CC10C9E
:100C6800C00CFF3E031D312E0130C6004608CC07DC
:100C78004C084B0603196A2E302E4C084B020318F9
:100C88006A2E01300310C00DC10DC20DFF3E031DB9
:100C9800462E0130CC024B084C060319662E013053
:100CA800CA024A0807390319662E452E0130031077
:100CB800C50CC40CC30CFF3E031D5B2E0130C600DF
:100CC8004608CB074C084B06031D5A2ECA1F7C2E1C
:100CD800FF30C006FF30C106FF30C2060130C00732
:100CE800003003180130C107003003180130C20773
:100CF8004A1F8E2EFF30C306FF30C406FF30C506DC
:100D08000130C307003003180130C407003003184E
:100D18000130C507CA014008C30741080311031879
:100D2800410A031DC407420803110318420A031DA0
:100D3800C507C51FB12EFF30C306FF30C406FF30FC
:100D4800C5060130C307003003180130C40700305E
:100D580003180130C507CA01CA0A4308F00044084D
:100D6800F1004508F2004C08C6004608F3004A089E
:100D7800C7004708F4000A128A15FF237008831277
:100D88000313C0007108C1007208C2000800831272
:100D980003132008A6002108A7002208A8000310B2
:100DA800270D280DA9002908AA002A08031DE32EEB
:100DB8000030A0000030A1000030A2000800230885
:100DC800A6002408A7002508A8000310270D280D51
:100DD800A9002908AF002F08031DF92E0030A00034
:100DE8000030A1000030A20008002F087B3EA600BA
:100DF8002608AA072008A6002108A7002208A8009C
:100E080010300310A80CA70CA60CFF3E031D052FDD
:100E18002608A9002908AF002308A6002408A7006F
:100E28002508A80010300310A80CA70CA60CFF3E3C
:100E3800031D172F2608A9002908AF068030A60031
:100E48002608AF05A117A417FF30A305FF30A40596
:100E58000030A5050030AB000030AC000030AD001C
:100E68000730A6002608AE00201C482F2308AB0731
:100E7800240803110318240A031DAC0725080311CD
:100E88000318250A031DAD0701300310A20CA10C9D
:100E9800A00CFF3E031D492F01300310A30DA40D24
:100EA800A50DFF3E031D512F0130AE02031D382F43
:100EB8000930A6002608AE00201C702F2308AB07B7
:100EC800240803110318240A031DAC07250803117D
:100ED8000318250A031DAD0701300310A20CA10C4D
:100EE800A00CFF3E031D712F01300310AD0CAC0C9C
:100EF800AB0CFF3E031D792F0130AE02031D602F9E
:100F08002B08F0002C08F1002D08F2002A08A60092
:100F18002608F3002F08A7002708F4000A128A15EC
:100F2800FF23700883120313A0007108A100720840
:100F3800A2000800F21FC52F0030F6000030F700AD
:100F48008030F8007009F9007109FA007209FB0095
:100F5800F90A0319FA0A0319FB0A7908F6077A0845
:100F680003187A0FB82FB92FF7077B0803187B0FE0
:100F7800BE2FBF2FF8077608F0007708F100780831
:100F8800F200F51FEC2F0030F6000030F70080303B
:100F9800F8007309F9007409FA007509FB00F90AE9
:100FA8000319FA0A0319FB0A7908F6077A080318DD
:100FB8007A0FDF2FE02FF7077B0803187B0FE52F49
:100FC800E62FF8077608F3007708F4007808F500AC
:100FD8008030F2068030F50675087202031D08009D
:0E0FE80074087102031D0800730870020800EF
:1010000008308A000408840A82070034F4344A3421
:10101000483495349534C734C134DC344534DC3439
:101020006D34C334B334333440343434013448344D
:101030009D34B03445340034DA34423400348034E2
:101040003F340A340D3420342D342D342D342D34D6
:101050002D342D342D3420344534533454344F340E
:10106000553452344F3420344434453420345034D1
:1010700049344C344834413420342D342D342D340B
:101080002D342D342D342D3420340A340D342034B5
:1010900000343134303430342E3430342034483459
:1010A0007A340A3400343234303430342E3430342C
:1010B000203448347A340A340034313430342E3415
:1010C0003034203448347A340A3400343234303402
:1010D0002E343034203448347A340A3400343634F0
:1010E00030342E343034203448347A340A340034E6
:1010F00031342E343034203448347A340A340034D5
:1011000035342E343034203448347A340A340034C0
:10150400F000831203130C1E832A7008990008004C
:10151400720871047004031908008030F206080090
:1015240064008001840A0406031900340406932A23
:10153400F300F201731CA22A7008F1007108F2078B
:101544000310F00D0310F30C7308031D9C2A72089A
:101554000800831603139F179F111F119F101F105C
:101564001F17831203139F171F13831603130C17DC
:10157400831203130C1308007808F0007908F100B3
:10158400F2018E30FB007B08F300F4010A128A1585
:10159400FF237008F8007108F9007208FA000800C7
:1015A4007008F200F20DF20DF20D831203131F08FE
:1015B4007206C73972069F001F142930F200F20B1D
:1015C400E12A0000831203131F151F1D0800E72AD8
:1015D400F200720884000A128A1500200A128A1581
:1015E400003A03190800720884000A128A150020C0
:1015F4000A128A150A128A1582220A128A150130E1
:10160400F1007108F207EB2A7C30F300F30B082B8E
:101614000B2B831203139818142B1A08F300730866
:10162400F400202B1C300A128A15EA2283120313B9
:1016340018121A08F3007308F40018168C127408B0
:101644000800831203135F085E045D0403192C2B46
:101654008030DF066008C0006108C1006208C20073
:101664005D08C3005E08C4005F08C5000A128A1141
:10167400C225831203134008DD004108DE0042083E
:10168400DF000800720871047004031D502B7308F6
:10169400840083138001840A8001080072087F3962
:1016A400F400F5010310F40DF50D730884007408BB
:1016B40083138000840A75088000710D710D01394F
:1016C400F400F5017308840074088004840A750822
:1016D40080047308840082308007840F0008031894
:1016E400000AFF00FF307F078000840372088039FE
:1016F4003F38F200F1130800FF308316031385000E
:10170400FF308312031385008316031386018312AB
:1017140003138601803083160313870080308312FD
:1017240003138700831603138801831203138801AC
:10173400FF30831603138900FF30831203138900DB
:10174400003083160317A1000130A000AD309F00C4
:10175400B0309E000130A2000030A3000A128A15A6
:101764000B260A128A150A128A15AB220A128A1546
:101774000B178B17BC2B83120313D3018E30FC0081
:101784007C08D200D11FD32BCE09CF09D009D109AF
:10179400CE0A0319CF0A0319D00A0319D10AD301B7
:1017A400D30AFF3051050319E52B01300310D10C86
:1017B400D00CCF0CCE0CFF3E031DD82B0130FC0007
:1017C4007C08D207D32B4E08F0004F08F1005008D4
:1017D400F2005208FC007C08F3005308FD007D0869
:1017E400F4000A128A15FF23700883120313CE0033
:1017F4007108CF007208D000080073080319072C81
:10180400720871047004031D1A2C0030F0000030BB
:10181400F1000030F20008000130F5007508F3070C
:1018240001300310F20CF10CF00CFF3E031D132CDD
:10183400FE3072050319352C0E2C0130F5007508A5
:10184400F3070130F007003003180130F1070030CE
:1018540003180130F20701300310F20CF10CF00C04
:10186400FF3E031D2E2CFF3072050319442C1F2C40
:101874000130F30201300310F00DF10DF20DFF3EC3
:10188400031D3D2CF11B4A2C0230730203183A2C21
:101894007318522CFF30F0057F30F105FF30F2054C
:1018A4000310F30C7308F500F601F7011030031070
:1018B400F50DF60DF70DFF3E031D592C7508F004C8
:1018C4007608F1047708F204740803190800F21783
:1018D40008000330FC007C08F00083120313510855
:1018E4000A128A159A220A128A15831203135007C0
:1018F40084000A128A1500200A128A15D3000A12DB
:101904008A1500200A128A15D4000A128A150020AA
:101914000A128A15D500510852040319DD2C03302C
:10192400FC007C08F000FF30D1070318D20AFF3016
:10193400D20751080A128A159A220A128A158312AA
:101944000313500784000A128A1500200A128A150C
:10195400C0000A128A1500200A128A15C1000A1250
:101964008A1500200A128A15C2005308A0005408E0
:10197400A1005508A2004D08A3004E08A4004F087A
:10198400A5000A128A11CB260A128A1583120313A0
:101994002008C3002108C4002208C5000A128A11C5
:1019A400C2250A128A15831203134008D300410882
:1019B400D40042088C2C5308CD005408CE0055089E
:1019C400CF000800831203134008C4004108C50077
:1019D4004208C6000310450D460DC7004708CD0058
:1019E4004D08031DFE2C0030C3000030C20000303F
:1019F400C1000030C00008004008C4004108C50010
:101A04004208C60017300310C60CC50CC40CFF3EB8
:101A1400031D052D4408C7004708C800C117FF303F
:101A2400C005FF30C1050030C2054008C9004108A7
:101A3400CA004208CB00CC018E30CD02CD1F402D10
:101A44004D08803A8F3E0318302D0030C30000301B
:101A5400C2000030C1000030C00008000130031093
:101A6400CC0CCB0CCA0CC90CFF3E031D312D01302C
:101A7400C4004408CD0703195B2D302D18304D02E6
:101A8400031C582D0030C3000030C2000030C100D8
:101A94000030C00008000130C4000310C90DCA0D95
:101AA400CB0DCC0DC40B4F2D0130CD024D08031DC1
:101AB4004D2D48080319692DC909CA09CB09CC0958
:101AC400C90A0319CA0A0319CB0A0319CC0A4C0818
:101AD400C3004B08C2004A08C1004908C0000800FE
:101AE400831203135408F0005508F1005608F2005D
:101AF4005B30D7005708F3000A128A1544230A12F0
:101B04008A1583120313DC1FAC2D5408F00055080A
:101B1400F1005608F2000030F3000030F400003009
:101B2400F5000A128A119E270A128A150318A32D9A
:101B3400003083120313D4008030D500BF30D600A8
:101B44000800003083120313D4000030D5000030A5
:101B5400D600080000305C02153003195B0203183C
:101B640008005408C0005508C1005608C2000A12F3
:101B74008A15E4240A128A15831203134308D10038
:101B84004208D0004108CF004008CE000A128A154E
:101B9400BD230A128A15831203134E08D8004F0876
:101BA400D9005008DA005408F0005508F10056082E
:101BB400F2005808F3005908F4005A08F5000A1214
:101BC4008A119E270A128A150318022E00308312E6
:101BD4000313C0008030C100BF30C2005808C300E6
:101BE4005908C4005A08C5000A128A11C225831272
:101BF40003134008D4004108D5004208D600080069
:101C0400831203135808D4005908D5005A08D60083
:101C1400080083160317A401A50122082304031D49
:101C2400332E1E0883160313BB00831603171F08E5
:101C340083160313BC0083160317200883160313AB
:101C4400BD0083160317210883160313BE00063054
:101C54000310BB0DBC0DBD0DBE0DFF3E031D2A2E92
:101C6400542E831603171E0883160313BB00831612
:101C740003171F0883160313BC00831603172008D9
:101C840083160313BD008316031721088316031359
:101C9400BE0004300310BB0DBC0DBD0DBE0DFF3ED8
:101CA400031D4C2E3E08831603179300831603135B
:101CB4003D08831603179200831603133C0883160A
:101CC40003179100831603133B0883160317900030
:101CD40001309700313096002D309500003094008B
:101CE4000A128A15A5260A128A15831603171008E4
:101CF400FF3EA40011080318013EFF3EA50024087E
:101D0400831603139900981718139816181283163C
:101D14000317220C83160313031C18110318181538
:101D2400981418108312031398171813981218167E
:101D34009811181198101810831603138C16831217
:101D440003138C120800831603179901931FB72EEF
:101D54009009910992099309900A0319910A0319A8
:101D6400920A0319930A9901990A971FCC2E940990
:101D7400950996099709940A0319950A0319960A6D
:101D84000319970A013083160313BA003A0883161D
:101D94000317990600309D0000309C0000309B0022
:101DA40000309A0013081204110410040319312F8F
:101DB4009801980A931BF42E013083160313BA007A
:101DC400031083160317900D910D920D930D831636
:101DD4000313BA0BE22E0130BA003A088316031734
:101DE4009807DC2E013083160313BA000310831600
:101DF40003179A0D9B0D9C0D9D0D83160313BA0BAF
:101E0400F82E8316031713081702031D132F120845
:101E14001602031D132F11081502031D132F10089A
:101E24001402031C242F100894021108031C110F20
:101E340095021208031C120F96021308031C130FB9
:101E440097021A1401300310930C920C910C900C0D
:101E5400FF3E031D252F01309802031DF42E19089F
:101E640003193F2F9A099B099C099D099A0A031992
:101E74009B0A03199C0A03199D0A1D0893001C0858
:101E840092001B0891001A089000080083120313A3
:101E94003308B6003408B7003508B8000310370D0E
:101EA400380DB9003908BE003E08031D602F00300C
:101EB400B0000030B1000030B20008003008B600B5
:101EC4003108B7003208B8000310370D380DB900D7
:101ED4003908BF003F08031D762F0030B0000030E2
:101EE400B1000030B20008000030BB000030BC007C
:101EF4000030BD0089303F07B6003608BE02330803
:101F0400B6003408B7003508B80010300310B80C18
:101F1400B70CB60CFF3E031D882F3608B9003908EC
:101F2400BF003008B6003108B7003208B8001030DE
:101F34000310B80CB70CB60CFF3E031D9A2F3608DD
:101F4400B9003908BF068030B6003608BF05B4179B
:101F5400FF30B305FF30B4050030B505B117FF30CD
:101F6400B005FF30B1050030B2051830B6003608B0
:101F7400BA0001300310BB0DBC0DBD0DFF3E031DA7
:101F8400BC2F32083502031DCD2F31083402031D46
:101F9400CD2F30083302031CDA2F3008B302310886
:101FA400031C310FB4023208031C320AB5023B147D
:101FB40001300310B30DB40DB50DFF3E031DDB2F2F
:101FC4000130BA02031DBB2F3B08F0003C08F100AE
:101FD4003D08F2003E08B6003608F3003F08B7009B
:101FE4003708F4000A128A15FF23700883120313BA
:0C1FF400B0007108B1007208B2000800D3
:02400E00323F3F
:00000001FF
